{
  "contractName": "ElliNFT",
  "abi": [
    {
      "inputs": [],
      "stateMutability": "nonpayable",
      "type": "constructor"
    },
    {
      "anonymous": false,
      "inputs": [
        {
          "indexed": true,
          "internalType": "address",
          "name": "owner",
          "type": "address"
        },
        {
          "indexed": true,
          "internalType": "address",
          "name": "approved",
          "type": "address"
        },
        {
          "indexed": true,
          "internalType": "uint256",
          "name": "tokenId",
          "type": "uint256"
        }
      ],
      "name": "Approval",
      "type": "event"
    },
    {
      "anonymous": false,
      "inputs": [
        {
          "indexed": true,
          "internalType": "address",
          "name": "owner",
          "type": "address"
        },
        {
          "indexed": true,
          "internalType": "address",
          "name": "operator",
          "type": "address"
        },
        {
          "indexed": false,
          "internalType": "bool",
          "name": "approved",
          "type": "bool"
        }
      ],
      "name": "ApprovalForAll",
      "type": "event"
    },
    {
      "anonymous": false,
      "inputs": [
        {
          "indexed": true,
          "internalType": "address",
          "name": "from",
          "type": "address"
        },
        {
          "indexed": true,
          "internalType": "address",
          "name": "to",
          "type": "address"
        },
        {
          "indexed": true,
          "internalType": "uint256",
          "name": "tokenId",
          "type": "uint256"
        }
      ],
      "name": "Transfer",
      "type": "event"
    },
    {
      "inputs": [
        {
          "internalType": "uint256",
          "name": "",
          "type": "uint256"
        }
      ],
      "name": "animalList",
      "outputs": [
        {
          "internalType": "uint256",
          "name": "sex",
          "type": "uint256"
        },
        {
          "internalType": "uint256",
          "name": "legs",
          "type": "uint256"
        },
        {
          "internalType": "bool",
          "name": "wings",
          "type": "bool"
        },
        {
          "internalType": "string",
          "name": "name",
          "type": "string"
        },
        {
          "internalType": "bool",
          "name": "alive",
          "type": "bool"
        },
        {
          "internalType": "bool",
          "name": "forSale",
          "type": "bool"
        },
        {
          "internalType": "uint256",
          "name": "price",
          "type": "uint256"
        },
        {
          "internalType": "uint256",
          "name": "parent1",
          "type": "uint256"
        },
        {
          "internalType": "uint256",
          "name": "parent2",
          "type": "uint256"
        },
        {
          "internalType": "bool",
          "name": "canReproduce",
          "type": "bool"
        },
        {
          "internalType": "uint256",
          "name": "reproductionPrice",
          "type": "uint256"
        }
      ],
      "stateMutability": "view",
      "type": "function",
      "constant": true
    },
    {
      "inputs": [
        {
          "internalType": "address",
          "name": "to",
          "type": "address"
        },
        {
          "internalType": "uint256",
          "name": "tokenId",
          "type": "uint256"
        }
      ],
      "name": "approve",
      "outputs": [],
      "stateMutability": "nonpayable",
      "type": "function"
    },
    {
      "inputs": [
        {
          "internalType": "address",
          "name": "owner",
          "type": "address"
        }
      ],
      "name": "balanceOf",
      "outputs": [
        {
          "internalType": "uint256",
          "name": "",
          "type": "uint256"
        }
      ],
      "stateMutability": "view",
      "type": "function",
      "constant": true
    },
    {
      "inputs": [],
      "name": "baseURI",
      "outputs": [
        {
          "internalType": "string",
          "name": "",
          "type": "string"
        }
      ],
      "stateMutability": "view",
      "type": "function",
      "constant": true
    },
    {
      "inputs": [
        {
          "internalType": "address",
          "name": "",
          "type": "address"
        }
      ],
      "name": "breederList",
      "outputs": [
        {
          "internalType": "bool",
          "name": "",
          "type": "bool"
        }
      ],
      "stateMutability": "view",
      "type": "function",
      "constant": true
    },
    {
      "inputs": [
        {
          "internalType": "uint256",
          "name": "tokenId",
          "type": "uint256"
        }
      ],
      "name": "getApproved",
      "outputs": [
        {
          "internalType": "address",
          "name": "",
          "type": "address"
        }
      ],
      "stateMutability": "view",
      "type": "function",
      "constant": true
    },
    {
      "inputs": [
        {
          "internalType": "uint256",
          "name": "",
          "type": "uint256"
        }
      ],
      "name": "idList",
      "outputs": [
        {
          "internalType": "uint256",
          "name": "",
          "type": "uint256"
        }
      ],
      "stateMutability": "view",
      "type": "function",
      "constant": true
    },
    {
      "inputs": [
        {
          "internalType": "address",
          "name": "owner",
          "type": "address"
        },
        {
          "internalType": "address",
          "name": "operator",
          "type": "address"
        }
      ],
      "name": "isApprovedForAll",
      "outputs": [
        {
          "internalType": "bool",
          "name": "",
          "type": "bool"
        }
      ],
      "stateMutability": "view",
      "type": "function",
      "constant": true
    },
    {
      "inputs": [],
      "name": "name",
      "outputs": [
        {
          "internalType": "string",
          "name": "",
          "type": "string"
        }
      ],
      "stateMutability": "view",
      "type": "function",
      "constant": true
    },
    {
      "inputs": [
        {
          "internalType": "uint256",
          "name": "tokenId",
          "type": "uint256"
        }
      ],
      "name": "ownerOf",
      "outputs": [
        {
          "internalType": "address",
          "name": "",
          "type": "address"
        }
      ],
      "stateMutability": "view",
      "type": "function",
      "constant": true
    },
    {
      "inputs": [
        {
          "internalType": "uint256",
          "name": "",
          "type": "uint256"
        }
      ],
      "name": "reproductionBreederList",
      "outputs": [
        {
          "internalType": "address",
          "name": "",
          "type": "address"
        }
      ],
      "stateMutability": "view",
      "type": "function",
      "constant": true
    },
    {
      "inputs": [
        {
          "internalType": "address",
          "name": "from",
          "type": "address"
        },
        {
          "internalType": "address",
          "name": "to",
          "type": "address"
        },
        {
          "internalType": "uint256",
          "name": "tokenId",
          "type": "uint256"
        }
      ],
      "name": "safeTransferFrom",
      "outputs": [],
      "stateMutability": "nonpayable",
      "type": "function"
    },
    {
      "inputs": [
        {
          "internalType": "address",
          "name": "from",
          "type": "address"
        },
        {
          "internalType": "address",
          "name": "to",
          "type": "address"
        },
        {
          "internalType": "uint256",
          "name": "tokenId",
          "type": "uint256"
        },
        {
          "internalType": "bytes",
          "name": "_data",
          "type": "bytes"
        }
      ],
      "name": "safeTransferFrom",
      "outputs": [],
      "stateMutability": "nonpayable",
      "type": "function"
    },
    {
      "inputs": [
        {
          "internalType": "address",
          "name": "operator",
          "type": "address"
        },
        {
          "internalType": "bool",
          "name": "approved",
          "type": "bool"
        }
      ],
      "name": "setApprovalForAll",
      "outputs": [],
      "stateMutability": "nonpayable",
      "type": "function"
    },
    {
      "inputs": [
        {
          "internalType": "bytes4",
          "name": "interfaceId",
          "type": "bytes4"
        }
      ],
      "name": "supportsInterface",
      "outputs": [
        {
          "internalType": "bool",
          "name": "",
          "type": "bool"
        }
      ],
      "stateMutability": "view",
      "type": "function",
      "constant": true
    },
    {
      "inputs": [],
      "name": "symbol",
      "outputs": [
        {
          "internalType": "string",
          "name": "",
          "type": "string"
        }
      ],
      "stateMutability": "view",
      "type": "function",
      "constant": true
    },
    {
      "inputs": [
        {
          "internalType": "uint256",
          "name": "index",
          "type": "uint256"
        }
      ],
      "name": "tokenByIndex",
      "outputs": [
        {
          "internalType": "uint256",
          "name": "",
          "type": "uint256"
        }
      ],
      "stateMutability": "view",
      "type": "function",
      "constant": true
    },
    {
      "inputs": [
        {
          "internalType": "uint256",
          "name": "tokenId",
          "type": "uint256"
        }
      ],
      "name": "tokenURI",
      "outputs": [
        {
          "internalType": "string",
          "name": "",
          "type": "string"
        }
      ],
      "stateMutability": "view",
      "type": "function",
      "constant": true
    },
    {
      "inputs": [],
      "name": "totalSupply",
      "outputs": [
        {
          "internalType": "uint256",
          "name": "",
          "type": "uint256"
        }
      ],
      "stateMutability": "view",
      "type": "function",
      "constant": true
    },
    {
      "inputs": [
        {
          "internalType": "address",
          "name": "from",
          "type": "address"
        },
        {
          "internalType": "address",
          "name": "to",
          "type": "address"
        },
        {
          "internalType": "uint256",
          "name": "tokenId",
          "type": "uint256"
        }
      ],
      "name": "transferFrom",
      "outputs": [],
      "stateMutability": "nonpayable",
      "type": "function"
    },
    {
      "inputs": [
        {
          "internalType": "address",
          "name": "_to",
          "type": "address"
        },
        {
          "internalType": "uint256",
          "name": "_id",
          "type": "uint256"
        }
      ],
      "name": "Mint",
      "outputs": [],
      "stateMutability": "nonpayable",
      "type": "function"
    },
    {
      "inputs": [
        {
          "internalType": "address",
          "name": "account",
          "type": "address"
        }
      ],
      "name": "isBreeder",
      "outputs": [
        {
          "internalType": "bool",
          "name": "",
          "type": "bool"
        }
      ],
      "stateMutability": "nonpayable",
      "type": "function"
    },
    {
      "inputs": [],
      "name": "registrationPrice",
      "outputs": [
        {
          "internalType": "uint256",
          "name": "",
          "type": "uint256"
        }
      ],
      "stateMutability": "nonpayable",
      "type": "function"
    },
    {
      "inputs": [],
      "name": "registerMeAsBreeder",
      "outputs": [],
      "stateMutability": "payable",
      "type": "function",
      "payable": true
    },
    {
      "inputs": [
        {
          "internalType": "uint256",
          "name": "sex",
          "type": "uint256"
        },
        {
          "internalType": "uint256",
          "name": "legs",
          "type": "uint256"
        },
        {
          "internalType": "bool",
          "name": "wings",
          "type": "bool"
        },
        {
          "internalType": "string",
          "name": "name",
          "type": "string"
        }
      ],
      "name": "declareAnimal",
      "outputs": [
        {
          "internalType": "uint256",
          "name": "",
          "type": "uint256"
        }
      ],
      "stateMutability": "nonpayable",
      "type": "function"
    },
    {
      "inputs": [
        {
          "internalType": "uint256",
          "name": "animalNumber",
          "type": "uint256"
        }
      ],
      "name": "getAnimalCharacteristics",
      "outputs": [
        {
          "internalType": "string",
          "name": "_name",
          "type": "string"
        },
        {
          "internalType": "bool",
          "name": "_wings",
          "type": "bool"
        },
        {
          "internalType": "uint256",
          "name": "_legs",
          "type": "uint256"
        },
        {
          "internalType": "uint256",
          "name": "_sex",
          "type": "uint256"
        }
      ],
      "stateMutability": "nonpayable",
      "type": "function"
    },
    {
      "inputs": [
        {
          "internalType": "uint256",
          "name": "animalNumber",
          "type": "uint256"
        }
      ],
      "name": "declareDeadAnimal",
      "outputs": [],
      "stateMutability": "nonpayable",
      "type": "function"
    },
    {
      "inputs": [
        {
          "internalType": "address",
          "name": "owner",
          "type": "address"
        },
        {
          "internalType": "uint256",
          "name": "index",
          "type": "uint256"
        }
      ],
      "name": "tokenOfOwnerByIndex",
      "outputs": [
        {
          "internalType": "uint256",
          "name": "",
          "type": "uint256"
        }
      ],
      "stateMutability": "view",
      "type": "function",
      "constant": true
    },
    {
      "inputs": [
        {
          "internalType": "uint256",
          "name": "animalNumber",
          "type": "uint256"
        }
      ],
      "name": "isAnimalForSale",
      "outputs": [
        {
          "internalType": "bool",
          "name": "",
          "type": "bool"
        }
      ],
      "stateMutability": "view",
      "type": "function",
      "constant": true
    },
    {
      "inputs": [
        {
          "internalType": "uint256",
          "name": "animalNumber",
          "type": "uint256"
        }
      ],
      "name": "animalPrice",
      "outputs": [
        {
          "internalType": "uint256",
          "name": "",
          "type": "uint256"
        }
      ],
      "stateMutability": "view",
      "type": "function",
      "constant": true
    },
    {
      "inputs": [
        {
          "internalType": "uint256",
          "name": "animalNumber",
          "type": "uint256"
        }
      ],
      "name": "buyAnimal",
      "outputs": [],
      "stateMutability": "payable",
      "type": "function",
      "payable": true
    },
    {
      "inputs": [
        {
          "internalType": "uint256",
          "name": "animalNumber",
          "type": "uint256"
        },
        {
          "internalType": "uint256",
          "name": "price",
          "type": "uint256"
        }
      ],
      "name": "offerForSale",
      "outputs": [],
      "stateMutability": "nonpayable",
      "type": "function"
    },
    {
      "inputs": [
        {
          "internalType": "uint256",
          "name": "sex",
          "type": "uint256"
        },
        {
          "internalType": "uint256",
          "name": "legs",
          "type": "uint256"
        },
        {
          "internalType": "bool",
          "name": "wings",
          "type": "bool"
        },
        {
          "internalType": "string",
          "name": "name",
          "type": "string"
        },
        {
          "internalType": "uint256",
          "name": "parent1",
          "type": "uint256"
        },
        {
          "internalType": "uint256",
          "name": "parent2",
          "type": "uint256"
        }
      ],
      "name": "declareAnimalWithParents",
      "outputs": [
        {
          "internalType": "uint256",
          "name": "",
          "type": "uint256"
        }
      ],
      "stateMutability": "nonpayable",
      "type": "function"
    },
    {
      "inputs": [
        {
          "internalType": "uint256",
          "name": "animalNumber",
          "type": "uint256"
        }
      ],
      "name": "getParents",
      "outputs": [
        {
          "internalType": "uint256",
          "name": "",
          "type": "uint256"
        },
        {
          "internalType": "uint256",
          "name": "",
          "type": "uint256"
        }
      ],
      "stateMutability": "nonpayable",
      "type": "function"
    },
    {
      "inputs": [
        {
          "internalType": "uint256",
          "name": "animalNumber",
          "type": "uint256"
        }
      ],
      "name": "canReproduce",
      "outputs": [
        {
          "internalType": "bool",
          "name": "",
          "type": "bool"
        }
      ],
      "stateMutability": "nonpayable",
      "type": "function"
    },
    {
      "inputs": [
        {
          "internalType": "uint256",
          "name": "animalNumber",
          "type": "uint256"
        }
      ],
      "name": "reproductionPrice",
      "outputs": [
        {
          "internalType": "uint256",
          "name": "",
          "type": "uint256"
        }
      ],
      "stateMutability": "view",
      "type": "function",
      "constant": true
    },
    {
      "inputs": [
        {
          "internalType": "uint256",
          "name": "animalNumber",
          "type": "uint256"
        },
        {
          "internalType": "uint256",
          "name": "priceOfReproduction",
          "type": "uint256"
        }
      ],
      "name": "offerForReproduction",
      "outputs": [
        {
          "internalType": "uint256",
          "name": "",
          "type": "uint256"
        }
      ],
      "stateMutability": "nonpayable",
      "type": "function"
    },
    {
      "inputs": [
        {
          "internalType": "uint256",
          "name": "animalNumber",
          "type": "uint256"
        }
      ],
      "name": "authorizedBreederToReproduce",
      "outputs": [
        {
          "internalType": "address",
          "name": "",
          "type": "address"
        }
      ],
      "stateMutability": "nonpayable",
      "type": "function"
    },
    {
      "inputs": [
        {
          "internalType": "uint256",
          "name": "animalNumber",
          "type": "uint256"
        }
      ],
      "name": "payForReproduction",
      "outputs": [],
      "stateMutability": "payable",
      "type": "function",
      "payable": true
    }
  ],
  "bytecode": "0x60806040523480156200001157600080fd5b506040518060400160405280600481526020017f626c6575000000000000000000000000000000000000000000000000000000008152506040518060400160405280600281526020017f4265000000000000000000000000000000000000000000000000000000000000815250620000966301ffc9a760e01b6200012f60201b60201c565b8160069080519060200190620000ae9291906200024e565b508060079080519060200190620000c79291906200024e565b50620000e06380ac58cd60e01b6200012f60201b60201c565b620000f8635b5e139f60e01b6200012f60201b60201c565b6200011063780e9d6360e01b6200012f60201b60201c565b505062000129600a6200023860201b620035891760201c565b620002fd565b63ffffffff60e01b817bffffffffffffffffffffffffffffffffffffffffffffffffffffffff19161415620001cc576040517f08c379a000000000000000000000000000000000000000000000000000000000815260040180806020018281038252601c8152602001807f4552433136353a20696e76616c696420696e746572666163652069640000000081525060200191505060405180910390fd5b6001600080837bffffffffffffffffffffffffffffffffffffffffffffffffffffffff19167bffffffffffffffffffffffffffffffffffffffffffffffffffffffff1916815260200190815260200160002060006101000a81548160ff02191690831515021790555050565b6001816000016000828254019250508190555050565b828054600181600116156101000203166002900490600052602060002090601f016020900481019282601f106200029157805160ff1916838001178555620002c2565b82800160010185558215620002c2579182015b82811115620002c1578251825591602001919060010190620002a4565b5b509050620002d19190620002d5565b5090565b620002fa91905b80821115620002f6576000816000905550600101620002dc565b5090565b90565b614c55806200030d6000396000f3fe6080604052600436106102305760003560e01c80634f6ccce71161012e578063b75e0750116100ab578063d9c2a0e61161006f578063d9c2a0e6146110f6578063e5c84c7914611200578063e985e9c51461127b578063ec89777214611304578063ff36ed981461133f57610230565b8063b75e075014610da7578063b88d4fde14610e74578063c5f51f7314610f86578063c7b9cb0b14610fd9578063c87b56dd1461104257610230565b806377386df3116100f257806377386df314610b4e578063929c13e314610b9357806395d89b4114610c61578063a0c32c8f14610cf1578063a22cb46514610d4a57610230565b80634f6ccce7146109405780636313531f1461098f5780636352211e146109de5780636c0360eb14610a5957806370a0823114610ae957610230565b806323b872dd116101bc57806332b0f3761161018057806332b0f3761461075f5780633573dbd11461081957806341d30bae1461086857806342842e0e146108725780634abda8c8146108ed57610230565b806323b872dd14610555578063242a0087146105d057806327aa8f31146106265780632a4672b2146106a15780632f745c59146106f057610230565b80630f6798a5116102035780630f6798a51461040d57806318160ddd146104685780631a14e94a146104935780631a65abf2146104c1578063216586581461052a57610230565b806301ffc9a71461023557806306fdde03146102a7578063081812fc14610337578063095ea7b3146103b2575b600080fd5b34801561024157600080fd5b5061028d6004803603602081101561025857600080fd5b8101908080357bffffffffffffffffffffffffffffffffffffffffffffffffffffffff1916906020019092919050505061136d565b604051808215151515815260200191505060405180910390f35b3480156102b357600080fd5b506102bc6113d4565b6040518080602001828103825283818151815260200191508051906020019080838360005b838110156102fc5780820151818401526020810190506102e1565b50505050905090810190601f1680156103295780820380516001836020036101000a031916815260200191505b509250505060405180910390f35b34801561034357600080fd5b506103706004803603602081101561035a57600080fd5b8101908080359060200190929190505050611476565b604051808273ffffffffffffffffffffffffffffffffffffffff1673ffffffffffffffffffffffffffffffffffffffff16815260200191505060405180910390f35b3480156103be57600080fd5b5061040b600480360360408110156103d557600080fd5b81019080803573ffffffffffffffffffffffffffffffffffffffff16906020019092919080359060200190929190505050611511565b005b34801561041957600080fd5b506104666004803603604081101561043057600080fd5b81019080803573ffffffffffffffffffffffffffffffffffffffff16906020019092919080359060200190929190505050611655565b005b34801561047457600080fd5b5061047d611696565b6040518082815260200191505060405180910390f35b6104bf600480360360208110156104a957600080fd5b81019080803590602001909291905050506116a7565b005b3480156104cd57600080fd5b50610510600480360360208110156104e457600080fd5b81019080803573ffffffffffffffffffffffffffffffffffffffff1690602001909291905050506117c2565b604051808215151515815260200191505060405180910390f35b34801561053657600080fd5b5061053f6117e2565b6040518082815260200191505060405180910390f35b34801561056157600080fd5b506105ce6004803603606081101561057857600080fd5b81019080803573ffffffffffffffffffffffffffffffffffffffff169060200190929190803573ffffffffffffffffffffffffffffffffffffffff169060200190929190803590602001909291905050506117eb565b005b3480156105dc57600080fd5b50610609600480360360208110156105f357600080fd5b8101908080359060200190929190505050611861565b604051808381526020018281526020019250505060405180910390f35b34801561063257600080fd5b5061065f6004803603602081101561064957600080fd5b81019080803590602001909291905050506118d7565b604051808273ffffffffffffffffffffffffffffffffffffffff1673ffffffffffffffffffffffffffffffffffffffff16815260200191505060405180910390f35b3480156106ad57600080fd5b506106da600480360360208110156106c457600080fd5b8101908080359060200190929190505050611914565b6040518082815260200191505060405180910390f35b3480156106fc57600080fd5b506107496004803603604081101561071357600080fd5b81019080803573ffffffffffffffffffffffffffffffffffffffff16906020019092919080359060200190929190505050611934565b6040518082815260200191505060405180910390f35b34801561076b57600080fd5b506108036004803603608081101561078257600080fd5b810190808035906020019092919080359060200190929190803515159060200190929190803590602001906401000000008111156107bf57600080fd5b8201836020820111156107d157600080fd5b803590602001918460018302840111640100000000831117156107f357600080fd5b9091929391929390505050611a5b565b6040518082815260200191505060405180910390f35b34801561082557600080fd5b506108526004803603602081101561083c57600080fd5b8101908080359060200190929190505050611c46565b6040518082815260200191505060405180910390f35b610870611c99565b005b34801561087e57600080fd5b506108eb6004803603606081101561089557600080fd5b81019080803573ffffffffffffffffffffffffffffffffffffffff169060200190929190803573ffffffffffffffffffffffffffffffffffffffff16906020019092919080359060200190929190505050611cf3565b005b3480156108f957600080fd5b506109266004803603602081101561091057600080fd5b8101908080359060200190929190505050611d13565b604051808215151515815260200191505060405180910390f35b34801561094c57600080fd5b506109796004803603602081101561096357600080fd5b8101908080359060200190929190505050611d40565b6040518082815260200191505060405180910390f35b34801561099b57600080fd5b506109c8600480360360208110156109b257600080fd5b8101908080359060200190929190505050611d63565b6040518082815260200191505060405180910390f35b3480156109ea57600080fd5b50610a1760048036036020811015610a0157600080fd5b8101908080359060200190929190505050611d84565b604051808273ffffffffffffffffffffffffffffffffffffffff1673ffffffffffffffffffffffffffffffffffffffff16815260200191505060405180910390f35b348015610a6557600080fd5b50610a6e611dbb565b6040518080602001828103825283818151815260200191508051906020019080838360005b83811015610aae578082015181840152602081019050610a93565b50505050905090810190601f168015610adb5780820380516001836020036101000a031916815260200191505b509250505060405180910390f35b348015610af557600080fd5b50610b3860048036036020811015610b0c57600080fd5b81019080803573ffffffffffffffffffffffffffffffffffffffff169060200190929190505050611e5d565b6040518082815260200191505060405180910390f35b348015610b5a57600080fd5b50610b9160048036036040811015610b7157600080fd5b810190808035906020019092919080359060200190929190505050611f32565b005b348015610b9f57600080fd5b50610c4b600480360360c0811015610bb657600080fd5b81019080803590602001909291908035906020019092919080351515906020019092919080359060200190640100000000811115610bf357600080fd5b820183602082011115610c0557600080fd5b80359060200191846001830284011164010000000083111715610c2757600080fd5b90919293919293908035906020019092919080359060200190929190505050611fc7565b6040518082815260200191505060405180910390f35b348015610c6d57600080fd5b50610c76612530565b6040518080602001828103825283818151815260200191508051906020019080838360005b83811015610cb6578082015181840152602081019050610c9b565b50505050905090810190601f168015610ce35780820380516001836020036101000a031916815260200191505b509250505060405180910390f35b348015610cfd57600080fd5b50610d3460048036036040811015610d1457600080fd5b8101908080359060200190929190803590602001909291905050506125d2565b6040518082815260200191505060405180910390f35b348015610d5657600080fd5b50610da560048036036040811015610d6d57600080fd5b81019080803573ffffffffffffffffffffffffffffffffffffffff1690602001909291908035151590602001909291905050506126b0565b005b348015610db357600080fd5b50610de060048036036020811015610dca57600080fd5b8101908080359060200190929190505050612868565b604051808060200185151515158152602001848152602001838152602001828103825286818151815260200191508051906020019080838360005b83811015610e36578082015181840152602081019050610e1b565b50505050905090810190601f168015610e635780820380516001836020036101000a031916815260200191505b509550505050505060405180910390f35b348015610e8057600080fd5b50610f8460048036036080811015610e9757600080fd5b81019080803573ffffffffffffffffffffffffffffffffffffffff169060200190929190803573ffffffffffffffffffffffffffffffffffffffff1690602001909291908035906020019092919080359060200190640100000000811115610efe57600080fd5b820183602082011115610f1057600080fd5b80359060200191846001830284011164010000000083111715610f3257600080fd5b91908080601f016020809104026020016040519081016040528093929190818152602001838380828437600081840152601f19601f820116905080830192505050505050509192919290505050612a40565b005b348015610f9257600080fd5b50610fbf60048036036020811015610fa957600080fd5b8101908080359060200190929190505050612ab8565b604051808215151515815260200191505060405180910390f35b348015610fe557600080fd5b5061102860048036036020811015610ffc57600080fd5b81019080803573ffffffffffffffffffffffffffffffffffffffff169060200190929190505050612af6565b604051808215151515815260200191505060405180910390f35b34801561104e57600080fd5b5061107b6004803603602081101561106557600080fd5b8101908080359060200190929190505050612b5d565b6040518080602001828103825283818151815260200191508051906020019080838360005b838110156110bb5780820151818401526020810190506110a0565b50505050905090810190601f1680156110e85780820380516001836020036101000a031916815260200191505b509250505060405180910390f35b34801561110257600080fd5b5061112f6004803603602081101561111957600080fd5b8101908080359060200190929190505050612e2e565b604051808c81526020018b81526020018a1515151581526020018060200189151515158152602001881515151581526020018781526020018681526020018581526020018415151515815260200183815260200182810382528a818151815260200191508051906020019080838360005b838110156111bb5780820151818401526020810190506111a0565b50505050905090810190601f1680156111e85780820380516001836020036101000a031916815260200191505b509c5050505050505050505050505060405180910390f35b34801561120c57600080fd5b506112396004803603602081101561122357600080fd5b8101908080359060200190929190505050612f54565b604051808273ffffffffffffffffffffffffffffffffffffffff1673ffffffffffffffffffffffffffffffffffffffff16815260200191505060405180910390f35b34801561128757600080fd5b506112ea6004803603604081101561129e57600080fd5b81019080803573ffffffffffffffffffffffffffffffffffffffff169060200190929190803573ffffffffffffffffffffffffffffffffffffffff169060200190929190505050612f87565b604051808215151515815260200191505060405180910390f35b34801561131057600080fd5b5061133d6004803603602081101561132757600080fd5b810190808035906020019092919050505061301b565b005b61136b6004803603602081101561135557600080fd5b81019080803590602001909291905050506131f3565b005b6000806000837bffffffffffffffffffffffffffffffffffffffffffffffffffffffff19167bffffffffffffffffffffffffffffffffffffffffffffffffffffffff1916815260200190815260200160002060009054906101000a900460ff169050919050565b606060068054600181600116156101000203166002900480601f01602080910402602001604051908101604052809291908181526020018280546001816001161561010002031660029004801561146c5780601f106114415761010080835404028352916020019161146c565b820191906000526020600020905b81548152906001019060200180831161144f57829003601f168201915b5050505050905090565b6000611481826132b7565b6114d6576040517f08c379a000000000000000000000000000000000000000000000000000000000815260040180806020018281038252602c815260200180614a89602c913960400191505060405180910390fd5b6004600083815260200190815260200160002060009054906101000a900473ffffffffffffffffffffffffffffffffffffffff169050919050565b600061151c82611d84565b90508073ffffffffffffffffffffffffffffffffffffffff168373ffffffffffffffffffffffffffffffffffffffff1614156115a3576040517f08c379a0000000000000000000000000000000000000000000000000000000008152600401808060200182810382526021815260200180614b436021913960400191505060405180910390fd5b8073ffffffffffffffffffffffffffffffffffffffff166115c26132d4565b73ffffffffffffffffffffffffffffffffffffffff1614806115f157506115f0816115eb6132d4565b612f87565b5b611646576040517f08c379a00000000000000000000000000000000000000000000000000000000081526004018080602001828103825260388152602001806149bb6038913960400191505060405180910390fd5b61165083836132dc565b505050565b61165f8282613395565b600b819080600181540180825580915050600190039060005260206000200160009091909190915055611692600a613589565b5050565b60006116a2600261359f565b905090565b600c600082815260200190815260200160002060040160019054906101000a900460ff16611720576040517f08c379a0000000000000000000000000000000000000000000000000000000008152600401808060200182810382526021815260200180614a686021913960400191505060405180910390fd5b600c6000828152602001908152602001600020600501543410156117ac576040517f08c379a000000000000000000000000000000000000000000000000000000000815260040180806020018281038252601d8152602001807f426f726564416c70616361733a20707269636520696e636f727265637400000081525060200191505060405180910390fd5b6117bf6117b882611d84565b33836117eb565b50565b600d6020528060005260406000206000915054906101000a900460ff1681565b60006001905090565b6117fc6117f66132d4565b826135b4565b611851576040517f08c379a0000000000000000000000000000000000000000000000000000000008152600401808060200182810382526031815260200180614b966031913960400191505060405180910390fd5b61185c8383836136a8565b505050565b600080600c600084815260200190815260200160002060040160009054906101000a900460ff16156118c457600c600084815260200190815260200160002060060154600c600085815260200190815260200160002060070154915091506118d2565b600080819150809050915091505b915091565b6000600e600083815260200190815260200160002060009054906101000a900473ffffffffffffffffffffffffffffffffffffffff169050919050565b6000600c6000838152602001908152602001600020600901549050919050565b60008060008090505b600b80549050811015611a4e578473ffffffffffffffffffffffffffffffffffffffff163073ffffffffffffffffffffffffffffffffffffffff16636352211e600b848154811061198a57fe5b90600052602060002001546040518263ffffffff1660e01b81526004018082815260200191505060206040518083038186803b1580156119c957600080fd5b505afa1580156119dd573d6000803e3d6000fd5b505050506040513d60208110156119f357600080fd5b810190808051906020019092919050505073ffffffffffffffffffffffffffffffffffffffff161415611a4157600b8181548110611a2d57fe5b906000526020600020015492505050611a55565b808060010191505061193d565b5060009150505b92915050565b6000611a67600a613589565b6000611a73600a6138eb565b9050604051806101600160405280888152602001878152602001861515815260200185858080601f016020809104026020016040519081016040528093929190818152602001838380828437600081840152601f19601f8201169050808301925050505050505081526020016001151581526020016000151581526020016000815260200160008152602001600081526020016000151581526020016000815250600c6000838152602001908152602001600020600082015181600001556020820151816001015560408201518160020160006101000a81548160ff0219169083151502179055506060820151816003019080519060200190611b77929190614703565b5060808201518160040160006101000a81548160ff02191690831515021790555060a08201518160040160016101000a81548160ff02191690831515021790555060c0820151816005015560e0820151816006015561010082015181600701556101208201518160080160006101000a81548160ff0219169083151502179055506101408201518160090155905050600b819080600181540180825580915050600190039060005260206000200160009091909190915055611c393382613395565b8091505095945050505050565b6000600c600083815260200190815260200160002060040160019054906101000a900460ff1615611c8f57600c6000838152602001908152602001600020600501549050611c94565b600090505b919050565b6001600d60003373ffffffffffffffffffffffffffffffffffffffff1673ffffffffffffffffffffffffffffffffffffffff16815260200190815260200160002060006101000a81548160ff021916908315150217905550565b611d0e83838360405180602001604052806000815250612a40565b505050565b6000600c600083815260200190815260200160002060080160009054906101000a900460ff169050919050565b600080611d578360026138f990919063ffffffff16565b50905080915050919050565b600b8181548110611d7057fe5b906000526020600020016000915090505481565b6000611db482604051806060016040528060298152602001614a1d6029913960026139289092919063ffffffff16565b9050919050565b606060098054600181600116156101000203166002900480601f016020809104026020016040519081016040528092919081815260200182805460018160011615610100020316600290048015611e535780601f10611e2857610100808354040283529160200191611e53565b820191906000526020600020905b815481529060010190602001808311611e3657829003601f168201915b5050505050905090565b60008073ffffffffffffffffffffffffffffffffffffffff168273ffffffffffffffffffffffffffffffffffffffff161415611ee4576040517f08c379a000000000000000000000000000000000000000000000000000000000815260040180806020018281038252602a8152602001806149f3602a913960400191505060405180910390fd5b611f2b600160008473ffffffffffffffffffffffffffffffffffffffff1673ffffffffffffffffffffffffffffffffffffffff168152602001908152602001600020613947565b9050919050565b3373ffffffffffffffffffffffffffffffffffffffff16611f5283611d84565b73ffffffffffffffffffffffffffffffffffffffff161415611fc3576001600c600084815260200190815260200160002060040160016101000a81548160ff02191690831515021790555080600c600084815260200190815260200160002060050181905550611fc23083611511565b5b5050565b60003373ffffffffffffffffffffffffffffffffffffffff16611fe984611d84565b73ffffffffffffffffffffffffffffffffffffffff161461218857600c600084815260200190815260200160002060080160009054906101000a900460ff1661207d576040517f08c379a00000000000000000000000000000000000000000000000000000000081526004018080602001828103825260278152602001806148d26027913960400191505060405180910390fd5b3373ffffffffffffffffffffffffffffffffffffffff16600e600085815260200190815260200160002060009054906101000a900473ffffffffffffffffffffffffffffffffffffffff1673ffffffffffffffffffffffffffffffffffffffff1614612134576040517f08c379a0000000000000000000000000000000000000000000000000000000008152600401808060200182810382526036815260200180614b0d6036913960400191505060405180910390fd5b6000600e600085815260200190815260200160002060006101000a81548173ffffffffffffffffffffffffffffffffffffffff021916908373ffffffffffffffffffffffffffffffffffffffff1602179055505b3373ffffffffffffffffffffffffffffffffffffffff166121a883611d84565b73ffffffffffffffffffffffffffffffffffffffff161461234757600c600083815260200190815260200160002060080160009054906101000a900460ff1661223c576040517f08c379a00000000000000000000000000000000000000000000000000000000081526004018080602001828103825260278152602001806148f96027913960400191505060405180910390fd5b3373ffffffffffffffffffffffffffffffffffffffff16600e600084815260200190815260200160002060009054906101000a900473ffffffffffffffffffffffffffffffffffffffff1673ffffffffffffffffffffffffffffffffffffffff16146122f3576040517f08c379a0000000000000000000000000000000000000000000000000000000008152600401808060200182810382526036815260200180614bc76036913960400191505060405180910390fd5b6000600e600084815260200190815260200160002060006101000a81548173ffffffffffffffffffffffffffffffffffffffff021916908373ffffffffffffffffffffffffffffffffffffffff1602179055505b612351600a613589565b600061235d600a6138eb565b90506040518061016001604052808a8152602001898152602001881515815260200187878080601f016020809104026020016040519081016040528093929190818152602001838380828437600081840152601f19601f820116905080830192505050505050508152602001600115158152602001600015158152602001600081526020018581526020018481526020016000151581526020016000815250600c6000838152602001908152602001600020600082015181600001556020820151816001015560408201518160020160006101000a81548160ff021916908315150217905550606082015181600301908051906020019061245f929190614703565b5060808201518160040160006101000a81548160ff02191690831515021790555060a08201518160040160016101000a81548160ff02191690831515021790555060c0820151816005015560e0820151816006015561010082015181600701556101208201518160080160006101000a81548160ff0219169083151502179055506101408201518160090155905050600b8190806001815401808255809150506001900390600052602060002001600090919091909150556125213382613395565b80915050979650505050505050565b606060078054600181600116156101000203166002900480601f0160208091040260200160405190810160405280929190818152602001828054600181600116156101000203166002900480156125c85780601f1061259d576101008083540402835291602001916125c8565b820191906000526020600020905b8154815290600101906020018083116125ab57829003601f168201915b5050505050905090565b60003373ffffffffffffffffffffffffffffffffffffffff166125f484611d84565b73ffffffffffffffffffffffffffffffffffffffff1614612660576040517f08c379a0000000000000000000000000000000000000000000000000000000008152600401808060200182810382526023815260200180614bfd6023913960400191505060405180910390fd5b6001600c600085815260200190815260200160002060080160006101000a81548160ff02191690831515021790555081600c60008581526020019081526020016000206009018190555092915050565b6126b86132d4565b73ffffffffffffffffffffffffffffffffffffffff168273ffffffffffffffffffffffffffffffffffffffff161415612759576040517f08c379a00000000000000000000000000000000000000000000000000000000081526004018080602001828103825260198152602001807f4552433732313a20617070726f766520746f2063616c6c65720000000000000081525060200191505060405180910390fd5b80600560006127666132d4565b73ffffffffffffffffffffffffffffffffffffffff1673ffffffffffffffffffffffffffffffffffffffff16815260200190815260200160002060008473ffffffffffffffffffffffffffffffffffffffff1673ffffffffffffffffffffffffffffffffffffffff16815260200190815260200160002060006101000a81548160ff0219169083151502179055508173ffffffffffffffffffffffffffffffffffffffff166128136132d4565b73ffffffffffffffffffffffffffffffffffffffff167f17307eab39ab6107e8899845ad3d59bd9653f200f220920489ca2b5937696c3183604051808215151515815260200191505060405180910390a35050565b60606000806000612877614783565b600c60008781526020019081526020016000206040518061016001604052908160008201548152602001600182015481526020016002820160009054906101000a900460ff16151515158152602001600382018054600181600116156101000203166002900480601f01602080910402602001604051908101604052809291908181526020018280546001816001161561010002031660029004801561295e5780601f106129335761010080835404028352916020019161295e565b820191906000526020600020905b81548152906001019060200180831161294157829003601f168201915b505050505081526020016004820160009054906101000a900460ff161515151581526020016004820160019054906101000a900460ff161515151581526020016005820154815260200160068201548152602001600782015481526020016008820160009054906101000a900460ff161515151581526020016009820154815250509050806080015115612a11578060600151816040015182602001518360000151839350945094509450945050612a39565b6000806000604051806020016040528060008152509291908191508090509450945094509450505b9193509193565b612a51612a4b6132d4565b836135b4565b612aa6576040517f08c379a0000000000000000000000000000000000000000000000000000000008152600401808060200182810382526031815260200180614b966031913960400191505060405180910390fd5b612ab28484848461395c565b50505050565b6000600c600083815260200190815260200160002060040160019054906101000a900460ff1615612aec5760019050612af1565b600090505b919050565b6000600d60008373ffffffffffffffffffffffffffffffffffffffff1673ffffffffffffffffffffffffffffffffffffffff16815260200190815260200160002060009054906101000a900460ff1615612b535760019050612b58565b600090505b919050565b6060612b68826132b7565b612bbd576040517f08c379a000000000000000000000000000000000000000000000000000000000815260040180806020018281038252602f815260200180614ade602f913960400191505060405180910390fd5b6060600860008481526020019081526020016000208054600181600116156101000203166002900480601f016020809104026020016040519081016040528092919081815260200182805460018160011615610100020316600290048015612c665780601f10612c3b57610100808354040283529160200191612c66565b820191906000526020600020905b815481529060010190602001808311612c4957829003601f168201915b505050505090506060612c77611dbb565b9050600081511415612c8d578192505050612e29565b600082511115612d5e5780826040516020018083805190602001908083835b60208310612ccf5780518252602082019150602081019050602083039250612cac565b6001836020036101000a03801982511681845116808217855250505050505090500182805190602001908083835b60208310612d205780518252602082019150602081019050602083039250612cfd565b6001836020036101000a0380198251168184511680821785525050505050509050019250505060405160208183030381529060405292505050612e29565b80612d68856139ce565b6040516020018083805190602001908083835b60208310612d9e5780518252602082019150602081019050602083039250612d7b565b6001836020036101000a03801982511681845116808217855250505050505090500182805190602001908083835b60208310612def5780518252602082019150602081019050602083039250612dcc565b6001836020036101000a03801982511681845116808217855250505050505090500192505050604051602081830303815290604052925050505b919050565b600c6020528060005260406000206000915090508060000154908060010154908060020160009054906101000a900460ff1690806003018054600181600116156101000203166002900480601f016020809104026020016040519081016040528092919081815260200182805460018160011615610100020316600290048015612ef95780601f10612ece57610100808354040283529160200191612ef9565b820191906000526020600020905b815481529060010190602001808311612edc57829003601f168201915b5050505050908060040160009054906101000a900460ff16908060040160019054906101000a900460ff16908060050154908060060154908060070154908060080160009054906101000a900460ff1690806009015490508b565b600e6020528060005260406000206000915054906101000a900473ffffffffffffffffffffffffffffffffffffffff1681565b6000600560008473ffffffffffffffffffffffffffffffffffffffff1673ffffffffffffffffffffffffffffffffffffffff16815260200190815260200160002060008373ffffffffffffffffffffffffffffffffffffffff1673ffffffffffffffffffffffffffffffffffffffff16815260200190815260200160002060009054906101000a900460ff16905092915050565b3373ffffffffffffffffffffffffffffffffffffffff1661303b82611d84565b73ffffffffffffffffffffffffffffffffffffffff16146130a7576040517f08c379a00000000000000000000000000000000000000000000000000000000081526004018080602001828103825260258152602001806149446025913960400191505060405180910390fd5b6000600c600083815260200190815260200160002060040160006101000a81548160ff0219169083151502179055506060600b80548060200260200160405190810160405280929190818152602001828054801561312457602002820191906000526020600020905b815481526020019060010190808311613110575b50505050509050600060405190808252806020026020018201604052801561315b5781602001602082028038833980820191505090505b50600b90805190602001906131719291906147e5565b5060008090505b81518110156131e5578282828151811061318e57fe5b6020026020010151146131d857600b8282815181106131a957fe5b602002602001015190806001815401808255809150506001900390600052602060002001600090919091909150555b8080600101915050613178565b506131ef82613afe565b5050565b600c600082815260200190815260200160002060090154341015613262576040517f08c379a0000000000000000000000000000000000000000000000000000000008152600401808060200182810382526032815260200180614b646032913960400191505060405180910390fd5b33600e600083815260200190815260200160002060006101000a81548173ffffffffffffffffffffffffffffffffffffffff021916908373ffffffffffffffffffffffffffffffffffffffff16021790555050565b60006132cd826002613c3890919063ffffffff16565b9050919050565b600033905090565b816004600083815260200190815260200160002060006101000a81548173ffffffffffffffffffffffffffffffffffffffff021916908373ffffffffffffffffffffffffffffffffffffffff160217905550808273ffffffffffffffffffffffffffffffffffffffff1661334f83611d84565b73ffffffffffffffffffffffffffffffffffffffff167f8c5be1e5ebec7d5bd14f71427d1e84f3dd0314c0f7b2291e5b200ac8c7c3b92560405160405180910390a45050565b600073ffffffffffffffffffffffffffffffffffffffff168273ffffffffffffffffffffffffffffffffffffffff161415613438576040517f08c379a00000000000000000000000000000000000000000000000000000000081526004018080602001828103825260208152602001807f4552433732313a206d696e7420746f20746865207a65726f206164647265737381525060200191505060405180910390fd5b613441816132b7565b156134b4576040517f08c379a000000000000000000000000000000000000000000000000000000000815260040180806020018281038252601c8152602001807f4552433732313a20746f6b656e20616c7265616479206d696e7465640000000081525060200191505060405180910390fd5b6134c060008383613c52565b61351181600160008573ffffffffffffffffffffffffffffffffffffffff1673ffffffffffffffffffffffffffffffffffffffff168152602001908152602001600020613c5790919063ffffffff16565b5061352881836002613c719092919063ffffffff16565b50808273ffffffffffffffffffffffffffffffffffffffff16600073ffffffffffffffffffffffffffffffffffffffff167fddf252ad1be2c89b69c2b068fc378daa952ba7f163c4a11628f55a4df523b3ef60405160405180910390a45050565b6001816000016000828254019250508190555050565b60006135ad82600001613ca6565b9050919050565b60006135bf826132b7565b613614576040517f08c379a000000000000000000000000000000000000000000000000000000000815260040180806020018281038252602c81526020018061498f602c913960400191505060405180910390fd5b600061361f83611d84565b90508073ffffffffffffffffffffffffffffffffffffffff168473ffffffffffffffffffffffffffffffffffffffff16148061368e57508373ffffffffffffffffffffffffffffffffffffffff1661367684611476565b73ffffffffffffffffffffffffffffffffffffffff16145b8061369f575061369e8185612f87565b5b91505092915050565b8273ffffffffffffffffffffffffffffffffffffffff166136c882611d84565b73ffffffffffffffffffffffffffffffffffffffff1614613734576040517f08c379a0000000000000000000000000000000000000000000000000000000008152600401808060200182810382526029815260200180614ab56029913960400191505060405180910390fd5b600073ffffffffffffffffffffffffffffffffffffffff168273ffffffffffffffffffffffffffffffffffffffff1614156137ba576040517f08c379a00000000000000000000000000000000000000000000000000000000081526004018080602001828103825260248152602001806149206024913960400191505060405180910390fd5b6137c5838383613c52565b6137d06000826132dc565b61382181600160008673ffffffffffffffffffffffffffffffffffffffff1673ffffffffffffffffffffffffffffffffffffffff168152602001908152602001600020613cb790919063ffffffff16565b5061387381600160008573ffffffffffffffffffffffffffffffffffffffff1673ffffffffffffffffffffffffffffffffffffffff168152602001908152602001600020613c5790919063ffffffff16565b5061388a81836002613c719092919063ffffffff16565b50808273ffffffffffffffffffffffffffffffffffffffff168473ffffffffffffffffffffffffffffffffffffffff167fddf252ad1be2c89b69c2b068fc378daa952ba7f163c4a11628f55a4df523b3ef60405160405180910390a4505050565b600081600001549050919050565b60008060008061390c8660000186613cd1565b915091508160001c8160001c8090509350935050509250929050565b600061393b846000018460001b84613d6a565b60001c90509392505050565b600061395582600001613e60565b9050919050565b6139678484846136a8565b61397384848484613e71565b6139c8576040517f08c379a00000000000000000000000000000000000000000000000000000000081526004018080602001828103825260328152602001806148a06032913960400191505060405180910390fd5b50505050565b60606000821415613a16576040518060400160405280600181526020017f30000000000000000000000000000000000000000000000000000000000000008152509050613af9565b600082905060005b60008214613a40578080600101915050600a8281613a3857fe5b049150613a1e565b6060816040519080825280601f01601f191660200182016040528015613a755781602001600182028038833980820191505090505b50905060006001830390508593505b60008414613af157600a8481613a9657fe5b0660300160f81b82828060019003935081518110613ab057fe5b60200101907effffffffffffffffffffffffffffffffffffffffffffffffffffffffffffff1916908160001a905350600a8481613ae957fe5b049350613a84565b819450505050505b919050565b6000613b0982611d84565b9050613b1781600084613c52565b613b226000836132dc565b60006008600084815260200190815260200160002080546001816001161561010002031660029004905014613b7157600860008381526020019081526020016000206000613b709190614832565b5b613bc282600160008473ffffffffffffffffffffffffffffffffffffffff1673ffffffffffffffffffffffffffffffffffffffff168152602001908152602001600020613cb790919063ffffffff16565b50613bd78260026140b690919063ffffffff16565b5081600073ffffffffffffffffffffffffffffffffffffffff168273ffffffffffffffffffffffffffffffffffffffff167fddf252ad1be2c89b69c2b068fc378daa952ba7f163c4a11628f55a4df523b3ef60405160405180910390a45050565b6000613c4a836000018360001b6140d0565b905092915050565b505050565b6000613c69836000018360001b6140f3565b905092915050565b6000613c9d846000018460001b8473ffffffffffffffffffffffffffffffffffffffff1660001b614163565b90509392505050565b600081600001805490509050919050565b6000613cc9836000018360001b61423f565b905092915050565b60008082846000018054905011613d33576040517f08c379a0000000000000000000000000000000000000000000000000000000008152600401808060200182810382526022815260200180614a466022913960400191505060405180910390fd5b6000846000018481548110613d4457fe5b906000526020600020906002020190508060000154816001015492509250509250929050565b60008084600101600085815260200190815260200160002054905060008114158390613e31576040517f08c379a00000000000000000000000000000000000000000000000000000000081526004018080602001828103825283818151815260200191508051906020019080838360005b83811015613df6578082015181840152602081019050613ddb565b50505050905090810190601f168015613e235780820380516001836020036101000a031916815260200191505b509250505060405180910390fd5b50846000016001820381548110613e4457fe5b9060005260206000209060020201600101549150509392505050565b600081600001805490509050919050565b6000613e928473ffffffffffffffffffffffffffffffffffffffff16614327565b613e9f57600190506140ae565b606061403563150b7a0260e01b613eb46132d4565b888787604051602401808573ffffffffffffffffffffffffffffffffffffffff1673ffffffffffffffffffffffffffffffffffffffff1681526020018473ffffffffffffffffffffffffffffffffffffffff1673ffffffffffffffffffffffffffffffffffffffff16815260200183815260200180602001828103825283818151815260200191508051906020019080838360005b83811015613f64578082015181840152602081019050613f49565b50505050905090810190601f168015613f915780820380516001836020036101000a031916815260200191505b5095505050505050604051602081830303815290604052907bffffffffffffffffffffffffffffffffffffffffffffffffffffffff19166020820180517bffffffffffffffffffffffffffffffffffffffffffffffffffffffff83818316178352505050506040518060600160405280603281526020016148a0603291398773ffffffffffffffffffffffffffffffffffffffff1661433a9092919063ffffffff16565b9050600081806020019051602081101561404e57600080fd5b8101908080519060200190929190505050905063150b7a0260e01b7bffffffffffffffffffffffffffffffffffffffffffffffffffffffff1916817bffffffffffffffffffffffffffffffffffffffffffffffffffffffff191614925050505b949350505050565b60006140c8836000018360001b614352565b905092915050565b600080836001016000848152602001908152602001600020541415905092915050565b60006140ff838361446b565b61415857826000018290806001815401808255809150506001900390600052602060002001600090919091909150558260000180549050836001016000848152602001908152602001600020819055506001905061415d565b600090505b92915050565b600080846001016000858152602001908152602001600020549050600081141561420a57846000016040518060400160405280868152602001858152509080600181540180825580915050600190039060005260206000209060020201600090919091909150600082015181600001556020820151816001015550508460000180549050856001016000868152602001908152602001600020819055506001915050614238565b8285600001600183038154811061421d57fe5b90600052602060002090600202016001018190555060009150505b9392505050565b6000808360010160008481526020019081526020016000205490506000811461431b576000600182039050600060018660000180549050039050600086600001828154811061428a57fe5b90600052602060002001549050808760000184815481106142a757fe5b90600052602060002001819055506001830187600101600083815260200190815260200160002081905550866000018054806142df57fe5b60019003818190600052602060002001600090559055866001016000878152602001908152602001600020600090556001945050505050614321565b60009150505b92915050565b600080823b905060008111915050919050565b6060614349848460008561448e565b90509392505050565b6000808360010160008481526020019081526020016000205490506000811461445f576000600182039050600060018660000180549050039050600086600001828154811061439d57fe5b90600052602060002090600202019050808760000184815481106143bd57fe5b906000526020600020906002020160008201548160000155600182015481600101559050506001830187600101600083600001548152602001908152602001600020819055508660000180548061441057fe5b6001900381819060005260206000209060020201600080820160009055600182016000905550509055866001016000878152602001908152602001600020600090556001945050505050614465565b60009150505b92915050565b600080836001016000848152602001908152602001600020541415905092915050565b6060824710156144e9576040517f08c379a00000000000000000000000000000000000000000000000000000000081526004018080602001828103825260268152602001806149696026913960400191505060405180910390fd5b6144f285614327565b614564576040517f08c379a000000000000000000000000000000000000000000000000000000000815260040180806020018281038252601d8152602001807f416464726573733a2063616c6c20746f206e6f6e2d636f6e747261637400000081525060200191505060405180910390fd5b600060608673ffffffffffffffffffffffffffffffffffffffff1685876040518082805190602001908083835b602083106145b45780518252602082019150602081019050602083039250614591565b6001836020036101000a03801982511681845116808217855250505050505090500191505060006040518083038185875af1925050503d8060008114614616576040519150601f19603f3d011682016040523d82523d6000602084013e61461b565b606091505b509150915061462b828286614637565b92505050949350505050565b60608315614647578290506146fc565b60008351111561465a5782518084602001fd5b816040517f08c379a00000000000000000000000000000000000000000000000000000000081526004018080602001828103825283818151815260200191508051906020019080838360005b838110156146c15780820151818401526020810190506146a6565b50505050905090810190601f1680156146ee5780820380516001836020036101000a031916815260200191505b509250505060405180910390fd5b9392505050565b828054600181600116156101000203166002900490600052602060002090601f016020900481019282601f1061474457805160ff1916838001178555614772565b82800160010185558215614772579182015b82811115614771578251825591602001919060010190614756565b5b50905061477f919061487a565b5090565b604051806101600160405280600081526020016000815260200160001515815260200160608152602001600015158152602001600015158152602001600081526020016000815260200160008152602001600015158152602001600081525090565b828054828255906000526020600020908101928215614821579160200282015b82811115614820578251825591602001919060010190614805565b5b50905061482e919061487a565b5090565b50805460018160011615610100020316600290046000825580601f106148585750614877565b601f016020900490600052602060002090810190614876919061487a565b5b50565b61489c91905b80821115614898576000816000905550600101614880565b5090565b9056fe4552433732313a207472616e7366657220746f206e6f6e20455243373231526563656976657220696d706c656d656e746572426f726564416c70616361733a20706172656e7420312063616e6e6f7420726570726f64756365426f726564416c70616361733a20706172656e7420322063616e6e6f7420726570726f647563654552433732313a207472616e7366657220746f20746865207a65726f2061646472657373426f726564416c70616361733a2074686973206973206e6f7420796f757220616e696d616c416464726573733a20696e73756666696369656e742062616c616e636520666f722063616c6c4552433732313a206f70657261746f7220717565727920666f72206e6f6e6578697374656e7420746f6b656e4552433732313a20617070726f76652063616c6c6572206973206e6f74206f776e6572206e6f7220617070726f76656420666f7220616c6c4552433732313a2062616c616e636520717565727920666f7220746865207a65726f20616464726573734552433732313a206f776e657220717565727920666f72206e6f6e6578697374656e7420746f6b656e456e756d657261626c654d61703a20696e646578206f7574206f6620626f756e6473426f726564416c70616361733a20616e696d616c206e6f7420666f722073616c654552433732313a20617070726f76656420717565727920666f72206e6f6e6578697374656e7420746f6b656e4552433732313a207472616e73666572206f6620746f6b656e2074686174206973206e6f74206f776e4552433732314d657461646174613a2055524920717565727920666f72206e6f6e6578697374656e7420746f6b656e426f726564416c70616361733a20796f7520617265206e6f7420616c6c6f77656420746f20726570726f6475636520776974682070314552433732313a20617070726f76616c20746f2063757272656e74206f776e6572426f726564416c70616361733a206e6f7420656e6f756768204554482073656e642c207072696365206973206869676865724552433732313a207472616e736665722063616c6c6572206973206e6f74206f776e6572206e6f7220617070726f766564426f726564416c70616361733a20796f7520617265206e6f7420616c6c6f77656420746f20726570726f647563652077697468207032426f726564416c70616361733a20796f7520617265206e6f7420746865206f776e6572a26469706673582212204f66958e7ccb8cb7ea068cab9f34e4fd36498cffac65f832cd0c404ba2bd17b364736f6c63430006020033",
  "source": "pragma solidity ^0.6.2;\r\n\r\nimport \"@openzeppelin/contracts/token/ERC721/ERC721.sol\";\r\nimport \"@openzeppelin/contracts/utils/Counters.sol\";\r\nimport \"./IExerciceSolution.sol\";\r\n\r\ncontract ElliNFT is ERC721, IExerciceSolution {\r\n    using Counters for Counters.Counter;\r\n    Counters.Counter private _tokenIdCounter;\r\n\r\n    struct Animal { \r\n        uint sex;\r\n        uint legs;\r\n        bool wings;\r\n        string name;\r\n        bool alive;\r\n        bool forSale;\r\n        uint256 price;\r\n        uint256 parent1;\r\n        uint256 parent2;\r\n        bool canReproduce;\r\n        uint reproductionPrice;\r\n    }\r\n    uint256[] public idList;\r\n    mapping(uint => Animal) public animalList;\r\n    mapping(address => bool) public breederList;\r\n    mapping(uint256 => address) public reproductionBreederList;\r\n\r\n    constructor() ERC721(\"bleu\", \"Be\") public {\r\n        _tokenIdCounter.increment();\r\n    }\r\n\r\n    function Mint(address _to, uint _id) public {\r\n        _mint(_to, _id);\r\n        idList.push(_id);\r\n        _tokenIdCounter.increment();     \r\n    }\r\n\r\n    function isBreeder(address account) external override returns (bool){\r\n        if (breederList[account]){\r\n            return true;\r\n        }\r\n        return false;\r\n    }\r\n\r\n\tfunction registrationPrice() external override returns (uint256){\r\n        return 1;\r\n    }\r\n\r\n\tfunction registerMeAsBreeder() external override payable{\r\n        breederList[msg.sender] = true;\r\n    }\r\n\r\n\tfunction declareAnimal(uint sex, uint legs, bool wings, string calldata name) external override returns (uint256){\r\n        _tokenIdCounter.increment();\r\n        uint256 tokenId = _tokenIdCounter.current(); \r\n        animalList[tokenId] = Animal(sex, legs, wings, name, true, false, 0, 0, 0, false, 0);\r\n        idList.push(tokenId);\r\n        _mint(msg.sender, tokenId);\r\n        return tokenId;\r\n    }\r\n\r\n\tfunction getAnimalCharacteristics(uint animalNumber) external override returns (string memory _name, bool _wings, uint _legs, uint _sex){\r\n        Animal memory data = animalList[animalNumber];\r\n        if (data.alive){\r\n            return (data.name, data.wings, data.legs, data.sex);\r\n        }\r\n        return (\"\", false, 0, 0);\r\n    }\r\n\r\n\tfunction declareDeadAnimal(uint animalNumber) external override {\r\n        require(ownerOf(animalNumber) == msg.sender, \"BoredAlpacas: this is not your animal\");\r\n        animalList[animalNumber].alive = false;\r\n        uint256[] memory tmpIdList = idList;\r\n        idList = new uint256[](0);\r\n        for (uint i = 0; i < tmpIdList.length; i++){\r\n            if (tmpIdList[i]!=animalNumber){\r\n                idList.push(tmpIdList[i]);\r\n            }\r\n        }\r\n        _burn(animalNumber);\r\n    }\r\n\r\n\tfunction tokenOfOwnerByIndex(address owner, uint256 index) public override(ERC721, IExerciceSolution) view returns (uint256){\r\n        uint tmpIndex;\r\n        for (uint i = 0; i < idList.length; i++){\r\n            if (this.ownerOf(idList[i]) == owner){\r\n                return idList[i];\r\n            }\r\n        }\r\n        return 0;\r\n    }\r\n\r\n\t// Selling functions\r\n\tfunction isAnimalForSale(uint animalNumber) external override view returns (bool){\r\n        if (animalList[animalNumber].forSale){\r\n            return true;\r\n        }\r\n        return false;\r\n    }\r\n\r\n\tfunction animalPrice(uint animalNumber) external override view returns (uint256){\r\n        if (animalList[animalNumber].forSale){\r\n            return animalList[animalNumber].price;\r\n        }\r\n        return 0;\r\n    }\r\n\r\n\tfunction buyAnimal(uint animalNumber) override external payable{\r\n        require(animalList[animalNumber].forSale, \"BoredAlpacas: animal not for sale\");\r\n        require(msg.value >= animalList[animalNumber].price, \"BoredAlpacas: price incorrect\");\r\n        transferFrom(ownerOf(animalNumber), msg.sender, animalNumber);\r\n    }\r\n\r\n\tfunction offerForSale(uint animalNumber, uint price) override external{\r\n        if (ownerOf(animalNumber) == msg.sender){\r\n            animalList[animalNumber].forSale = true;\r\n            animalList[animalNumber].price = price;\r\n            approve(address(this), animalNumber);\r\n        }\r\n    }\r\n\r\n\t// Reproduction functions\r\n\r\n\tfunction declareAnimalWithParents(uint sex, uint legs, bool wings, string calldata name, uint parent1, uint parent2) external override returns (uint256){\r\n        if (ownerOf(parent1) != msg.sender){\r\n            require(animalList[parent1].canReproduce, \"BoredAlpacas: parent 1 cannot reproduce\");\r\n            require(reproductionBreederList[parent1] == msg.sender, \"BoredAlpacas: you are not allowed to reproduce with p1\");\r\n            reproductionBreederList[parent1] = address(0);\r\n        } \r\n        if (ownerOf(parent2) != msg.sender){\r\n            require(animalList[parent2].canReproduce, \"BoredAlpacas: parent 2 cannot reproduce\");\r\n            require(reproductionBreederList[parent2] == msg.sender, \"BoredAlpacas: you are not allowed to reproduce with p2\");\r\n            reproductionBreederList[parent2] = address(0);\r\n        } \r\n        _tokenIdCounter.increment();\r\n        uint256 tokenId = _tokenIdCounter.current(); \r\n        animalList[tokenId] = Animal(sex, legs, wings, name, true, false, 0, parent1, parent2, false, 0);\r\n        idList.push(tokenId);\r\n        _mint(msg.sender, tokenId);\r\n        return tokenId;\r\n    }\r\n\r\n\tfunction getParents(uint animalNumber) external override returns (uint256, uint256){\r\n        if (animalList[animalNumber].alive){\r\n            return (animalList[animalNumber].parent1, animalList[animalNumber].parent2);\r\n        }\r\n        return (0, 0);\r\n    }\r\n\r\n\tfunction canReproduce(uint animalNumber) external override returns (bool){\r\n        return animalList[animalNumber].canReproduce;\r\n    }\r\n\r\n\tfunction reproductionPrice(uint animalNumber) external override view returns (uint256){\r\n        return animalList[animalNumber].reproductionPrice;\r\n    }\r\n\r\n\tfunction offerForReproduction(uint animalNumber, uint priceOfReproduction) external override returns (uint256){\r\n        require(ownerOf(animalNumber)==msg.sender, \"BoredAlpacas: you are not the owner\");\r\n        animalList[animalNumber].canReproduce = true;\r\n        animalList[animalNumber].reproductionPrice = priceOfReproduction;\r\n    }\r\n\r\n\tfunction authorizedBreederToReproduce(uint animalNumber) external override returns (address) {\r\n        return reproductionBreederList[animalNumber];\r\n    }\r\n\r\n\tfunction payForReproduction(uint animalNumber) external override payable{\r\n        require(msg.value >= animalList[animalNumber].reproductionPrice, \"BoredAlpacas: not enough ETH send, price is higher\");\r\n        reproductionBreederList[animalNumber] = msg.sender;\r\n    }\r\n\r\n\r\n}",
  "sourcePath": "C:\\Users\\hervi\\Documents\\Cours ESILV\\Blockchain Programming\\TD-erc721\\Mon-td\\contracts\\ElliNFT.sol",
  "compiler": {
    "name": "solc",
    "version": "0.6.2+commit.bacdbe57.Emscripten.clang"
  },
  "schemaVersion": "3.4.11",
  "updatedAt": "2022-12-01T09:58:52.172Z",
  "networkType": "ethereum",
  "devdoc": {
    "methods": {
      "approve(address,uint256)": {
        "details": "See {IERC721-approve}."
      },
      "balanceOf(address)": {
        "details": "See {IERC721-balanceOf}."
      },
      "baseURI()": {
        "details": "Returns the base URI set via {_setBaseURI}. This will be automatically added as a prefix in {tokenURI} to each token's URI, or to the token ID if no specific URI is set for that token ID."
      },
      "getApproved(uint256)": {
        "details": "See {IERC721-getApproved}."
      },
      "isApprovedForAll(address,address)": {
        "details": "See {IERC721-isApprovedForAll}."
      },
      "name()": {
        "details": "See {IERC721Metadata-name}."
      },
      "ownerOf(uint256)": {
        "details": "See {IERC721-ownerOf}."
      },
      "safeTransferFrom(address,address,uint256)": {
        "details": "See {IERC721-safeTransferFrom}."
      },
      "safeTransferFrom(address,address,uint256,bytes)": {
        "details": "See {IERC721-safeTransferFrom}."
      },
      "setApprovalForAll(address,bool)": {
        "details": "See {IERC721-setApprovalForAll}."
      },
      "supportsInterface(bytes4)": {
        "details": "See {IERC165-supportsInterface}.     * Time complexity O(1), guaranteed to always use less than 30 000 gas."
      },
      "symbol()": {
        "details": "See {IERC721Metadata-symbol}."
      },
      "tokenByIndex(uint256)": {
        "details": "See {IERC721Enumerable-tokenByIndex}."
      },
      "tokenURI(uint256)": {
        "details": "See {IERC721Metadata-tokenURI}."
      },
      "totalSupply()": {
        "details": "See {IERC721Enumerable-totalSupply}."
      },
      "transferFrom(address,address,uint256)": {
        "details": "See {IERC721-transferFrom}."
      }
    }
  },
  "userdoc": {
    "methods": {}
  }
}